:100000000C943E000C9453000C9453000C94530039
:100010000C9453000C9453000C9453000C94530014
:100020000C9453000C9453000C9453000C94530004
:100030000C9453000C9453000C9453000C945300F4
:100040000C9453000C9453000C9453000C945300E4
:100050000C9453000C9453000C9453000C945300D4
:100060000C9453000C9453000C9453000C945300C4
:100070000C9453000C9453000C94530011241FBE95
:10008000CFEFCDBFDFE3DEBF18E3A0E0B8E3EFE0E2
:10009000F3E002C005900D92A831B107D9F70E9494
:1000A00001010C9479010C940000E0E1F8E08FE08C
:1000B000868381E083838583089588E5809317088C
:1000C0008091150886FFFCCF0895E0E1F8E0848177
:1000D000836084830895809318088091150886FFB3
:1000E000FCCF0895CF93DF93D82FC62F0E945D00D9
:1000F0008D2F8795882787950E946B008C2F0E94F3
:100100006B00DF91CF910C946500E0E0F4E080811A
:10011000897F808381898860818B82898860828BD6
:100120008081886080830895482F2091080430E002
:1001300002C0359527958A95E2F720FD11C082EC23
:1001400092EA0197F1F700C08091080490E002C0A4
:10015000959587954A95E2F78095909581700895D9
:1001600080E0089520910004286020930004FC01A1
:100170008191811101C008958E32F1F09CF480329A
:10018000B1F18D32A9F78091040488608093040452
:100190002FE38DE093E0215080409040E1F700C0D4
:1001A000000017C08F3221F72AEE8EE197E0215030
:1001B00080409040E1F723C08091040488608093E0
:1001C00004042AE684E091E0215080409040E1F769
:1001D00000C080910404877F809304042AE684E0B1
:1001E00091E0215080409040E1F700C0C1CF2FE363
:1001F0008DE093E0215080409040E1F700C0000086
:10020000B7CF0E9455000E948500E0910038F09120
:100210000138EE5FF74C608180E00E947200E0914F
:100220000038F0910138EE5FF74C608181E00E9468
:10023000720086EF92E80E94B20082E00E94940071
:10024000882311F1809104048860809304048091D4
:1002500000389091013885319105B0F40196809372
:100260000038909301388E5F974CFC01608180E0EC
:100270000E947200E0910038F0910138EE5FF74C77
:10028000608181E00E94720081E00E9494008823D6
:1002900011F18091040488608093040480910038F7
:1002A0009091013818161906B4F40197809300381C
:1002B000909301388E5F974CFC01608180E00E9432
:1002C0007200E0910038F0910138EE5FF74C6081E8
:1002D00081E00E947200FAE624E081E0F1502040C3
:1002E0008040E1F700C080910404877F809304047C
:0602F000A4CFF894FFCF3B
:1002F6002D2E2E2E202E2D202E2E2D202D2E2E2054
:090306002E2E202D2D2D202F009C
:10030F00060000010203060A1017202B3846556419
:08031F00788CA0B4C8DCF0FFEB
:00000001FF
