S0210000617474696E79313631345F766F6C756D655F636F6E74726F6C2E7372656347
S11300000C943E000C9450000C9450000C949F00EF
S11300100C9450000C9450000C9450000C9450001C
S11300200C9450000C9450000C9450000C9450000C
S11300300C9450000C9450000C9450000C945000FC
S11300400C9450000C9450000C9450000C945000EC
S11300500C9450000C9450000C9450000C945000DC
S11300600C9450000C9450000C9450000C945000CC
S11300700C9450000C9450000C94500011241FBE9A
S1130080CFEFCDBFDFE3DEBF28E3A0E0B8E301C0DC
S11300901D92A630B207E1F70E94FC000C946101A6
S11300A00C940000E0E0F4E08EE981838BE0858B22
S11300B0868B7894089527E030E023C0482F50E0E1
S11300C0022E02C0559547950A94E2F740FF06C0F8
S11300D0E0E0F4E094819460948305C0E0E0F4E00F
S11300E094819B7F9483E0E0F4E094819260948314
S11300F09AE19A95F1F700C094819D7F94832150F1
S113010031093323DCF608950F931F93CF93DF93C4
S1130110182F062FC0E0D4E08C81912F909589236D
S11301208C8381E10E945B00802F0E945B008C81A4
S1130130812B8C83DF91CF911F910F9108951F9292
S11301400F920FB60F9211242F933F934F935F9307
S11301506F937F938F939F93AF93BF93EF93FF938B
S11301608091080485FD14C0809104388F3F81F08C
S1130170809104388F5F809304386091043880E163
S11301800E9484006091043888E00E94840017C0B3
S11301908091080486FD13C080910438882379F087
S11301A0809104388150809304386091043880E150
S11301B00E9484006091043888E00E9484002FE744
S11301C088E391E0215080409040E1F700C00000B6
S11301D080E680930904FF91EF91BF91AF919F91C5
S11301E08F917F916F915F914F913F912F910F90DC
S11301F00FBE0F901F9018950E94520080E090E06F
S11302000E94450180930438809104388093053816
S113021080E8809307042FEF89E698E1215080401D
S11302209040E1F700C000008091003890910138BF
S1130230A0910238B09103380196A11DB11D80939D
S1130240003890930138A0930238B093033830916A
S11302500438209105383217D9F288379105A10561
S1130260B105B0F26091043880E090E00E944D0145
S11302708091043880930538109200381092013828
S11302801092023810920338C3CF03D0808199278B
S11302900895FC01E050FC4E0895262FAF93BF93C0
S11302A0E0E0F0E1328131FDFDCFDC01A050BC4E35
S11302B02C933DE934BF23E020830196BF91AF9195
S10902C00895F894FFCF3D
S9030000FC
