:100000000C943E000C9450000C9450000C949F00F3
:100010000C9450000C9450000C9450000C94500020
:100020000C9450000C9450000C9450000C94500010
:100030000C9450000C9450000C9450000C94500000
:100040000C9450000C9450000C9450000C945000F0
:100050000C9450000C9450000C9450000C945000E0
:100060000C9450000C9450000C9450000C945000D0
:100070000C9450000C9450000C94500011241FBE9E
:10008000CFEFCDBFDFE3DEBF28E3A0E0B8E301C0E0
:100090001D92A130B207E1F70E9408010C943901CA
:1000A0000C940000E0E0F4E08EE981838BE0858B26
:1000B000868B7894089527E030E023C0482F50E0E5
:1000C000022E02C0559547950A94E2F740FF06C0FC
:1000D000E0E0F4E094819460948305C0E0E0F4E013
:1000E00094819B7F9483E0E0F4E094819260948318
:1000F0009AE19A95F1F700C094819D7F94832150F5
:1001000031093323DCF608950F931F93CF93DF93C8
:10011000182F062FC0E0D4E08C81912F9095892371
:100120008C8381E10E945B00802F0E945B008C81A8
:10013000812B8C83DF91CF911F910F9108951F9296
:100140000F920FB60F9211242F933F934F935F930B
:100150006F937F938F939F93AF93BF93EF93FF938F
:100160008091080485FD1AC0809100388F3FB1F05E
:10017000809100388F5F809300386091003880E173
:100180000E9484006091003888E00E9484006091A1
:10019000003880E090E00E9425011DC08091080495
:1001A00086FD19C0809100388823A9F0809100381D
:1001B0008150809300386091003880E10E94840073
:1001C0006091003888E00E9484006091003880E0EF
:1001D00090E00E9425012FE788E391E021508040C4
:1001E0009040E1F700C0000080E680930904FF9191
:1001F000EF91BF91AF919F918F917F916F915F919F
:100200004F913F912F910F900FBE0F901F90189517
:100210000E94520080E090E00E941D01809300380F
:1002200080E8809307042FEF84E39CE02150804016
:100230009040E1F700C00000F3CF03D08081992700
:100240000895FC01E050FC4E0895262FAF93BF9314
:10025000E0E0F0E1328131FDFDCFDC01A050BC4E89
:100260002C933DE934BF23E020830196BF91AF91E9
:060270000895F894FFCF91
:00000001FF
