:100000000C943E000C9448000C9448000C9448005A
:100010000C9448000C9448000C9448000C94480040
:100020000C9448000C9448000C9448000C94480030
:100030000C9448000C9448000C9448000C94480020
:100040000C9448000C9448000C9448000C94480010
:100050000C9448000C9448000C9448000C94480000
:100060000C9448000C9448000C9448000C944800F0
:100070000C9448000C9448000C94480011241FBEB6
:10008000CFEFCDBFDFE3DEBF0E94B8000C949F032B
:100090000C940000E0E0F6E083E0828381E080835E
:1000A00082818283E0EAF0E080818062808308952B
:1000B0008093060681E08093080680910B0680FFFE
:1000C000FCCF81E080930B06809110069091110681
:1000D00008950F931F93CF93DF93CDB7DEB76E973D
:1000E000CDBFDEBF0E9458009F938F9382E497E8B4
:1000F0009F938F938E010F5F1F4F1F930F930E944B
:10010000CD00C8010E94AC000F900F900F900F908F
:100110000F900F906E96CDBFDEBFDF91CF911F91F4
:100120000F910895E0E0F8E089E090E08087918702
:1001300083E0878380EC8683E0E0F4E08081826066
:10014000808380818B7F808308959091040895FF40
:10015000FCCF809302080895CF93DF93EC0189913F
:10016000811103C0DF91CF9108950E94A500F7CFC0
:100170000E9492000E944A0082E597E80E94AC002B
:100180008AE00E9469002FE784E89EE121508040C8
:100190009040E1F700C00000F3CFAEE0B0E0E3ED47
:1001A000F0E00C947C030D891E8986E08C83098322
:1001B0001A838FEF9FE78D839E83AE01475E5F4F6B
:1001C0006F89788DCE0101960E94F0002F813885CD
:1001D000020F131FF80110822E96E4E00C94950391
:1001E000AFE0B0E0E6EFF0E00C946E037C013B0181
:1001F0008A01DC0116961D921C92179713968C911A
:1002000081FFC5C19AE0292EFE0131964F01D70129
:1002100013969C91F30193FD859193FF81913F018A
:10022000882309F44AC1853239F493FD859193FFFF
:1002300081913F01853229F4B70190E00E94E002EC
:10024000E6CFB12C412C512CBFE1B51538F08B32E3
:1002500009F188F4803201F1833221F157FC3CC06E
:1002600020ED280F2A3040F556FE1FC0B29C200D0D
:100270001124B22E06C08D3291F0803379F7689444
:1002800050F8F30193FD859193FF81913F01811116
:10029000DBCF22C0689451F8689452F8F2CF68948A
:1002A00053F8EFCF689454F8ECCF429C200D112402
:1002B000422E689455F8E5CF8E3229F456FCFDC0E5
:1002C000689456F8DECF8C3619F4689457F8D9CF75
:1002D0008C34B9F28836A9F2982F9F7D95549330CB
:1002E000C0F08336A1F18337C1F1833509F05BC0DB
:1002F000D801CD90DD908D016B2D70E056FC02C0D1
:100300006FEF7FEFC6010E94CA025C01689457F844
:100310000AC00C5F1F4FEFE3E983AA24A394B12C1A
:100320006401E89457F853FC04C04A141B0409F014
:1003300018F5342CA114B10431F5332009F467CF3A
:10034000B70180E290E00E94E0023A94F6CFD80133
:100350008C9189830E5F1F4FE0CFF801C190D1903F
:100360008F016B2D70E056FC02C06FEF7FEFC6016E
:100370000E94D5025C01D5CFB70180E290E00E94D7
:10038000E0024A94D2CFF60157FC859157FE819145
:100390006F01B70190E00E94E00231103A94B1E0A1
:1003A000AB1AB108C7CF843619F0893609F074C08A
:1003B000F80157FE6AC061917191819191918F010D
:1003C000E52DEF76DE2E97FF09C09095809570950C
:1003D00061957F4F8F4F9F4F6894D7F82AE030E0A8
:1003E000A4010E941003C82EC818AC2C5D2CD6FEA8
:1003F0000CC0E89450F8CB1440F4D4FE05C0D2FCF5
:1004000003C05D2D5E7E552EAB2C54FE98C0FE01C0
:10041000EC0DF11D8081803309F08AC0652D697E65
:10042000562E752D7870372E53FC98C050FE92C012
:10043000BC2CA41418F44C0CB42CBA1854FE94C060
:10044000B70180E390E00E94E00252FE09C088E715
:1004500090E051FE02C088E590E0B7010E94E00202
:10046000CB1408F48DC0CA94D12C8FEFC81AD80AC7
:10047000C80CD91CD6018E916D01B70190E00E9485
:10048000E0028C149D04B1F758CF61917191072E51
:10049000000C880B990B93CFD52CE894D4F82AE064
:1004A00030E0853739F1F52DF97FDF2E8037A9F05F
:1004B00058F48835A9F08F36D9F0F70186819781F5
:1004C0002F96E2E10C9487038837B9F7D4FE02C077
:1004D0006894D2F820E130E00DC06894D4F8F6CFEB
:1004E00054FE03C02F2F2660D22E20E132E002C03E
:1004F00028E030E0F801D7FE15C04191519161919B
:1005000071914C875D876E877F878F01A4016C8511
:100510007D858E859F850E941003C82EC818E8949B
:10052000D7F863CF81919191AC0170E060E0E9CFA1
:1005300052FC02C0A39475CFA394A39472CF852DCF
:10054000867809F46ECFF6CFB70180E290E00E9482
:10055000E002A394A414C0F3312C70CF342C3A18C9
:10056000A41408F46BCFF8CF852D867809F478CFE2
:100570008BE251FE80E257FC8DE2B70190E06ECF36
:10058000B70180E390E00E94E002BA9469CF8FEF58
:100590009FEF96CFFC010590615070400110D8F795
:1005A000809590958E0F9F1F0895FC0161507040BB
:1005B00001900110D8F7809590958E0F9F1F089598
:1005C0000F931F93CF93DF93182F092FEB018B818C
:1005D00081FD09C01FEF0FEF812F902FDF91CF9189
:1005E0001F910F91089582FF14C02E813F818C814D
:1005F0009D81281739073CF4E881F981CF010196E4
:100600008883998310838E819F8101968E839F8337
:10061000E3CFE885F985812F0995892BA1F3DACFFE
:10062000FA01AA27283051F1203181F1E8946F9323
:100630006E7F6E5F7F4F8F4F9F4FAF4FB1E03ED0C9
:10064000B4E03CD0670F781F891F9A1FA11D680F67
:10065000791F8A1F911DA11D6A0F711D811D911D9A
:10066000A11D20D009F468943F912AE0269F11240F
:100670003019305D3193DEF6CF010895462F477073
:10068000405D4193B3E00FD0C9F7F6CF462F4F70CE
:10069000405D4A3318F0495D31FD4052419302D02C
:1006A000A9F7EACFB4E0A6959795879577956795D2
:1006B000BA95C9F700976105710508959B01AC01D2
:1006C0000A2E06945795479537952795BA95C9F7F9
:1006D000620F731F841F951FA01D08952F923F92D4
:1006E0004F925F926F927F928F929F92AF92BF9242
:1006F000CF92DF92EF92FF920F931F93CF93DF93EE
:10070000CDB7DEB7CA1BDB0BCDBFDEBF09942A888D
:10071000398848885F846E847D848C849B84AA8415
:10072000B984C884DF80EE80FD800C811B81AA81A2
:10073000B981CE0FD11DCDBFDEBFED010895F89474
:02074000FFCFE9
:100742004144432056616C75653A2025750D0A00B7
:040752006861690071
:00000001FF
