:100000000C94CB000C94E8000C94E8000C94E800ED
:100010000C94EA000C94E8000C94E8000C94E800BE
:100020000C94E8000C94E8000C94E8000C94E800B0
:100030000C94E8000C94D8050C94E8000C94E800AB
:100040000C94E8000C94E8000C94E8000C94E80090
:100050000C94E8000C94E8000C94E8000C94E80080
:100060000C94E8000C94E8000C94E8000C94E80070
:100070000C94E8000C94E8000C94E80008000000E0
:10008000BE922449123EABAAAA2ABECDCCCC4C3E8D
:1000900000000080BEABAAAAAA3E00000000BF007C
:1000A0000000803F0000000000084178D3BB438778
:1000B000D1133D190E3CC3BD4282AD2B3E68EC828C
:1000C00076BED98FE1A93E4C80EFFFBE01C4FF7F11
:1000D0003F000000000000000000000000000000E1
:1000E0000000000000000000000000000000000010
:1000F0000000000000000000000000000000000000
:1001000000000000000000000000000000000000EF
:1001100000000000000000000000000000000000DF
:1001200000000000000000000000000000000000CF
:1001300000000000000000000000000000000000BF
:1001400000000000000000000000000000000000AF
:10015000000000000000000000000000000000009F
:10016000000000000000000000000000000000008F
:10017000000000000000000000000000000000007F
:10018000000000000000000000000000000000006F
:1001900000000000000011241FBECFEFCDBFDFE341
:1001A000DEBF18E3A0E0B8E3E4E0F6E102C00590AA
:1001B0000D92A430B107D9F72AE3A4E0B8E301C057
:1001C0001D92A834B207E1F70E94F1070C94F60AD9
:1001D0000C9400001F920F920FB60F921124CF9231
:1001E000DF92EF92FF920F931F932F933F934F93C2
:1001F0005F936F937F938F939F93AF93BF93EF938F
:10020000FF930E94FE058B019C0180912804409180
:1002100008385091093860910A3870910B3868019C
:100220007901C41AD50AE60AF70AB701A6014333D1
:10023000510561057105A0F083FD12C08091013860
:1002400090E0019665E070E00E942E0880930138EE
:10025000009308381093093820930A3830930B38EC
:1002600088E080932904FF91EF91BF91AF919F9116
:100270008F917F916F915F914F913F912F911F913E
:100280000F91FF90EF90DF90CF900F900FBE0F90E7
:100290001F90189588ED84BF82E080937000809154
:1002A000630084FFFCCF88ED84BF1092600084BFA0
:1002B000109261000895A0E0B4E08C918E678C9359
:1002C000E0E2F4E0808183608083808180688083C5
:1002D0008081877F808389E0838B88E050968C9330
:1002E0000895E0E0F6E083E0828381E08083E0EA45
:1002F000F0E080818063808308958093060681E02A
:100300008093080680910B0680FFFCCF81E08093EC
:100310000B0680911006909111060895FF920F939D
:100320001F93CF93DF93CDB7DEB72697CDBFDEBF48
:10033000F82E6D837E8304E610E019821A821B82F8
:100340001C828F2D0E947D0129813A814B815C8125
:10035000280F391F411D511D29833A834B835C832C
:1003600087EA91E60197F1F700C0000001501109FA
:1003700041F769817A818B819C8124E630E040E0FD
:1003800050E00E944208ED81FE8120833183269651
:10039000CDBFDEBFDF91CF911F910F91FF900895E8
:1003A000CF93C0910138CC23B1F0CF91089561E093
:1003B0008C2F0E9410032FE38DE093E021508040AA
:1003C0009040E1F700C0000060E08C2F0E94100315
:1003D000CF5FC83021F080910138882341F3C6E017
:1003E00013C061E08C2F0E9410032FE38DE093E097
:1003F000215080409040E1F700C0000060E08C2F69
:100400000E941003C15068F280910138882349F39B
:10041000C8CF1F93CF93DF93182F682F617080E0B0
:100420000E941003C12FD0E0BE01759567956170E1
:1004300081E00E941003BE017595679575956795DB
:10044000617082E00E941003BE0123E075956795FC
:100450002A95E1F7617083E00E941003BE0134E049
:10046000759567953A95E1F7617084E00E941003F5
:10047000BE0145E0759567954A95E1F7617085E0A5
:100480000E94100356E0D595C7955A95E1F76C2F59
:10049000617086E00E941003612F661F6627661F49
:1004A00087E0DF91CF911F910C941003CF93C0E0B0
:1004B00080910138823079F48C2F0E9409022FE359
:1004C0008DE093E0215080409040E1F700C00000B3
:1004D000CF5FCF3F69F780910138CFEF823081F055
:1004E000CF9108958C2F0E9409022FE38DE093E0B5
:1004F000215080409040E1F700C00000C15081F3DE
:1005000080910138823071F3EBCFCF92DF92EF927E
:10051000FF920F931F93CF93DF93CDB7DEB725974D
:10052000CDBFDEBFAC0100913F3810914038209123
:1005300041383091423880913D3890913E38FC01ED
:10054000EE0FFF1FE35FF74CA081B1814083518321
:1005500070E060E04A1B5B0B610971096A017B0175
:10056000C00ED11EE21EF31EC982DA82EB82FC822B
:10057000C0923F38D0924038E0924138F0924238F1
:10058000019668E170E00E942E0880933D389093B8
:100590003E3880910C38883118F48F5F80930C3886
:1005A00020910C3830E050E040E069817A818B8105
:1005B0009C810E9442088091063890910738281B40
:1005C000390B37FF03C0319521953109C90123E06B
:1005D000880F991F2A95E1F763E070E00E942E08CA
:1005E0006D83198261E0DD80E980ED1408F060E040
:1005F00089810E94100329812F5F2983283091F778
:100600002596CDBFDEBFDF91CF911F910F91FF9057
:10061000EF90DF90CF9008950E947D010C948502A9
:10062000962F8830D0F4E82FF0E0E850F54F0C9486
:100630006408809124048D7F660F682B60932404E6
:100640000895609124046E7F692BF8CF8091040493
:100650008D7F660F682B60930404089580910404D5
:100660008B7F24E0929FB0011124F4CF8091040489
:10067000877F28E0F7CF809104048F7B20E4F2CFBE
:10068000809104048F7D20E2EDCF809104048F7E61
:1006900020E1E8CFE0E0F4E080818E63808308957C
:1006A0008AE00E947D019695965F80910404817C8A
:1006B00080930404209104048091023841E050E0CA
:1006C000082E01C0440F0A94EAF7242B2093040457
:1006D0002091433821110CC0853020F48F5F809326
:1006E000023803C081E080934338915040F408956C
:1006F000823010F08150F3CF10924338F6CFE7E804
:10070000F3E13197F1F700C00000EFCF2F923F9255
:100710004F925F926F927F928F929F92AF92BF9211
:10072000CF92DF92EF92FF920F931F93CF93DF93BD
:10073000CDB7DEB72B97CDBFDEBFDC0168877987E9
:10074000190181E090E09C0102C0220F331F4A95FD
:10075000E2F7A901413031E053070CF0FFC08A01F4
:100760000150110930E020E00817190714F527E0BF
:1007700030E029833A8301E010E0041715070CF4F8
:100780004AC090E080E02B96CDBFDEBFDF91CF91D5
:100790001F910F91FF90EF90DF90CF90BF90AF909F
:1007A0009F908F907F906F905F904F903F902F9091
:1007B0000895BA0175956795F901E60FF71F0E17B1
:1007C0001F07C4F3FB0131972E233F23260F371F4A
:1007D00082179307F4F4BD01680F791FFB01F080C5
:1007E0006D01C20ED31EF601E080FB01E082F6012E
:1007F000F08268857985680F791FFB01F080C884D5
:10080000D984C20ED31EF601E080FB01E082F6011E
:10081000F0820196A9CF2801440C551C70E060E0DD
:10082000CB01098002C0880F991F0A94E2F7FC01EE
:10083000EA5EFE4F2491722EFC01EA52FF4FE491D2
:100840002114310409F4E195EA872114310421F4DB
:10085000722E7594E595EA876B01C00ED11E7B015F
:10086000E416F5066CF06F5F7F4F06171707C1F6A9
:1008700029813A812150310929833A8382017DCF30
:10088000CD018C0D9D1D8D839E83FC018081F72DF4
:10089000F8029001112426FB662460F8220F232F12
:1008A000221F330B620E288539852C0D3D1D2B83AD
:1008B0003C83F9012081FA85F20250011124A6FA45
:1008C000FF27F0F9AA0CAB2CAA1CBB08FA0DFB877A
:1008D000362D3F1B3F83972D290290011124EA8575
:1008E000E802C00111244C01880C892C881C99084D
:1008F0005901AA0CAB2CAA1CBB08A80C26FB22276A
:1009000020F9A20E86FB882780F98A0D9D012E0D05
:100910003F1DF9019081A884B984AE0CBF1CF5017C
:1009200080802114310411F495958594FB85F61986
:100930009F2E990EED81FE819082982C981AEB8162
:10094000FC819082FF819F0FF9019083880DF50152
:100950008083E40CF51CC40CD51C82CF8FEF9FEF75
:1009600012CFAF92BF92CF92DF92EF92FF920F938E
:100970001F93CF93DF93EC017A018B010150110992
:1009800081E090E06C01002E02C0CC0CDD1C0A94CA
:10099000E2F75E01AC0CBD1C80E090E04115510512
:1009A00031F09A01A801BE01C5010E948603FE0133
:1009B00021E030E02C153D059CF0EF28E1F430E01B
:1009C00020E0A801BE01C501DF91CF911F910F91D9
:1009D000FF90EF90DF90CF90BF90AF900C94860384
:1009E000DF01AC0DBD1D4C9151815C9341832E5FA5
:1009F0003F4F3296DFCFDF91CF911F910F91FF9044
:100A0000EF90DF90CF90BF90AF9008950E9471015A
:100A1000E4E4F9E3A4E4B8E311921D928AE3E43438
:100A2000F807D1F70895AF92BF92CF92DF92EF927D
:100A3000FF920F931F93CF93DF93CDB7DEB7269727
:100A4000CDBFDEBF34E4E32E39E3F32E04E418E334
:100A500044E4C42E4AE3D42E5801E982FA8287E0A6
:100A60000E947D019695879596958795E981FA81F3
:100A70008193E983FA83F50111925F0129813A811B
:100A8000C216D30661F730E020E048E050E064E4AD
:100A900078E384E499E30E9486031D821E82F701B5
:100AA00021917F01F80181918F018802C0011124F9
:100AB0002202800D911D11249C01990F440B550BAE
:100AC00029833A834B835C83CA01B9010E94B6082B
:100AD00069837A838B839C8369817A818B819C81F2
:100AE0000E94E50969837A838B839C8369817A817B
:100AF0008B819C810E947E0869837A838B839C838F
:100B000089819A8101969C01990F440B550B298389
:100B10003A834B835C83CA01B9010E94B60869839A
:100B20007A838B839C8369817A818B819C810E94EB
:100B30001A092DEF34E649EA52E469837A838B83FC
:100B40009C8369817A818B819C810E94720969836F
:100B50007A838B839C8369817A818B819C810E94BB
:100B600085088D8187700E9410034D815E814F5FE3
:100B70005F4F4D835E834038510509F090CF269634
:100B8000CDBFDEBFDF91CF911F910F91FF90EF900E
:100B9000DF90CF90BF90AF900895E0E4FAE011822B
:100BA00080E29EE48487958781E080838583089531
:100BB0001F921FB61F9211248F939F93AF93BF93E1
:100BC0008091443A9091453AA091463AB091473A83
:100BD0000196A11DB11D8093443A9093453AA0938C
:100BE000463AB093473A81E08093460ABF91AF916D
:100BF0009F918F911F901FBE1F901895CF93DF93E9
:100C000000D000D0CDB7DEB7F8948091443A9091EF
:100C1000453AA091463AB091473A89839A83AB838B
:100C2000BC83789469817A818B819C812496CDBF25
:100C3000DEBFDF91CF910895E0E1F8E08FE5868394
:100C400081E083830895880F8093170880911508A9
:100C500086FFFCCF089583E0809314080895809365
:100C600018088091150886FFFCCF0895CF93C62FF2
:100C7000FC0180810E94230680E00E942F068C2FB9
:100C80000E942F0683E080931408CF910895CF939C
:100C9000C62FFC0180810E94230681E00E942F065E
:100CA0008C2F0E942F0683E080931408CF91089523
:100CB0001F93CF93DF93EC01162F88810E942306A8
:100CC0008B81812B0E942F0683E080931408DF9193
:100CD000CF911F9108951F93CF93DF93182FD92F92
:100CE000C62F64600E94580686E08A95F1F700C01E
:100CF0006C2F6B7F812F9D2F0E94580689EF90E00B
:100D00000197F1F700C00000DF91CF911F91089586
:100D10001F93CF93DF93D82FC92F162F0E94580609
:100D2000612F8D2F9C2FDF91CF911F910C946B061B
:100D30000F931F93CF93DF938C01D62FC42F607F27
:100D4000642B0E94880680E1D89FB00111246C2B8F
:100D5000C801DF91CF911F910F910C94880661E03B
:100D60000E9436068FE097E20197F1F700C000007D
:100D7000089562E00E9436068FE097E20197F1F74E
:100D800000C0000008950F931F93CF93DF9300D00E
:100D900000D0CDB7DEB7DC01E42F009100961091B2
:100DA0000196209102963091039609831A832B8332
:100DB0003C8317968C911797481710F0EFEFE80FC8
:100DC000EC0FFD2FF11D8181680F6068CD01249625
:100DD000CDBFDEBFDF91CF911F910F910C943606EE
:100DE000FC0165816B7F658368600C943606FC01AD
:100DF0006581862F846085836C60CF010C943606F4
:100E0000CF93DF93EC01423018F08C8188608C83A3
:100E10004F8318862FE38DE093E02150804090406F
:100E2000E1F700C0000060E3CE010E94880683EE77
:100E300097E50197F1F700C0000060E3CE010E9442
:100E4000880683EE97E50197F1F700C0000060E3A4
:100E5000CE010E9488068DEE92E00197F1F700C066
:100E6000000060E2CE010E9488066C816062CE01C3
:100E70000E94360684E08D83CE010E94F706CE01E3
:100E80000E94AF0682E08E8366E0CE010E943606A5
:100E9000CE01DF91CF910C94B906CF93DF93EC0193
:100EA000688349832A8388E08B830E941C062FE392
:100EB0008DE093E0215080409040E1F700C00000B9
:100EC0001C824A816981CE01DF91CF910C94000789
:100ED000FC0165816D7F658368600C943606FC01BA
:100EE0006581862F826085836A60CF010C94360607
:100EF000FC0165816E7F658368600C943606FC0199
:100F00006581862F816085836960CF010C943606E8
:100F100068E10C9436066CE10C943606FC0166819F
:100F2000862F826086836660CF010C943606FC01B2
:100F300066816D7F668364600C943606FC01668171
:100F4000862F816086836560CF010C943606FC0194
:100F500066816E7F668364600C943606EF92FF9222
:100F60000F931F93CF93DF938C017A01677088E012
:100F7000689FB00111246064C8010E943606E70131
:100F800088E0E80EF11C6991C8010E944706CE1561
:100F9000DF05C9F7DF91CF911F910F91FF90EF907F
:100FA0000895FC0188E0838360E0CF010C9458062B
:100FB000FC01138260E00C9458060F931F93CF93AB
:100FC000DF93182F092FEB016991611105C0DF91A3
:100FD000CF911F910F910895812F902F0E94470666
:100FE000F3CF0E944A010E945B010E94CD050E943E
:100FF0007101C0E061E08C2F0E941003CF5FC83008
:10100000C9F778942FE784E89EE121508040904012
:10101000E1F700C0000066E078E387E00E948E01FF
:1010200064E078E38AE00E948E018091013882308A
:1010300079F028F4811107C00E94D001F6CF8330E7
:1010400051F0843091F76AE087E00E940C03EDCF05
:101050000E945602EACF0E941305E7CF97FB072EA6
:1010600016F4009407D077FD09D00E946A0807FCA7
:1010700005D03EF4909581959F4F089570956195A8
:101080007F4F0895A1E21A2EAA1BBB1BFD010DC0C4
:10109000AA1FBB1FEE1FFF1FA217B307E407F50728
:1010A00020F0A21BB30BE40BF50B661F771F881F04
:1010B000991F1A9469F760957095809590959B019A
:1010C000AC01BD01CF010895EE0FFF1F0590F49113
:1010D000E02D0994AA1BBB1B51E107C0AA1FBB1F2F
:1010E000A617B70710F0A61BB70B881F991F5A95B4
:1010F000A9F780959095BC01CD0108950E948508BF
:101100006894B1110C94140908950E94F90888F0AC
:101110009F5798F0B92F9927B751B0F0E1F0660FBB
:10112000771F881F991F1AF0BA95C9F714C0B130FC
:1011300091F00E941309B1E008950C941309672FF0
:10114000782F8827B85F39F0B93FCCF3869577952B
:101150006795B395D9F73EF4909580957095619514
:101160007F4F8F4F9F4F0895E89409C097FB3EF43F
:1011700090958095709561957F4F8F4F9F4F9923E4
:10118000A9F0F92F96E9BB279395F6958795779562
:101190006795B795F111F8CFFAF4BB0F11F460FF22
:1011A0001BC06F5F7F4F8F4F9F4F16C0882311F07A
:1011B00096E911C0772321F09EE8872F762F05C08E
:1011C000662371F096E8862F70E060E02AF09A9529
:1011D000660F771F881FDAF7880F9695879597F91E
:1011E000089557FD9058440F551F59F05F3F71F017
:1011F0004795880F97FB991F61F09F3F79F087957E
:101200000895121613061406551FF2CF4695F1DF06
:1012100008C0161617061806991FF1CF8695710596
:10122000610508940895E894BB2766277727CB01CA
:1012300097F908950E942A0929ED3BE54EED5EE3FA
:101240000C94720916F00C94980A0C94A60A6894EF
:101250000C94920A0E94F908A8F39923C1F3AEF303
:10126000DF93CF931F930F93FF92C92FDD2788231E
:101270002AF02197660F771F881FDAF720E030E009
:1012800040E85FEB9FE3883920F0803E38F02196FC
:101290008F770E94260AECE7F0E004C00E94260A3D
:1012A000E9EAF0E00E94B00A8B01BE01EC01FB2EDE
:1012B0006F5771097595771F880B990B0E94B608B7
:1012C00028E132E741E35FE30E948509AF2D9801F1
:1012D000AE01FF900F911F91CF91DF910E943D0AC7
:1012E0000C94E50A0E9485090C94E50A0E94D70A2D
:1012F00038F00E94DE0A20F0952311F00C94920A37
:101300000C94A60A11240C9414090E94F10870F39D
:10131000959FC1F3950F50E0551F629FF001729F9A
:10132000BB27F00DB11D639FAA27F00DB11DAA1FA9
:10133000649F6627B00DA11D661F829F2227B00DF6
:10134000A11D621F739FB00DA11D621F839FA00D81
:10135000611D221F749F3327A00D611D231F849FD1
:10136000600D211D822F762F6A2F11249F57504028
:101370009AF0F1F088234AF0EE0FFF1FBB1F661FA3
:10138000771F881F91505040A9F79E3F510580F06C
:101390000C94920A0C9414095F3FE4F3983ED4F342
:1013A000869577956795B795F795E7959F5FC1F710
:1013B000FE2B880F911D9695879597F9089519F43E
:1013C00016F40C94A60A0C94980A0E94F908B8F333
:1013D0009923C9F3B6F39F57550B87FF0E94A90ABB
:1013E0000024A0E640EA900180585695979528F48D
:1013F000805C660F771F881F20F026173707480785
:1014000030F4621B730B840B202931294A2BA695DB
:1014100017940794202531254A2758F7660F771F20
:10142000881F20F026173707480730F4620B730B2C
:10143000840B200D311D411DA09581F7B901842F2A
:101440009158880F9695879508955058BB27AA27DD
:101450000E943D0A0C94E50A0E94D70A38F00E94C7
:10146000DE0A20F039F49F3F19F426F40C94A60A02
:101470000EF4E095E7FB0C94920AE92F0E94F10824
:1014800058F3BA17620773078407950720F079F4B9
:10149000A6F50C9413090EF4E0950B2EBA2FA02D8F
:1014A0000B01B90190010C01CA01A0011124FF2711
:1014B000591B99F0593F50F4503E68F11A16F0400C
:1014C000A22F232F342F4427585FF3CF469537950B
:1014D0002795A795F0405395C9F77EF41F16BA0BD0
:1014E000620B730B840BBAF09150A1F0FF0FBB1F7E
:1014F000661F771F881FC2F70EC0BA0F621F731FC7
:10150000841F48F4879577956795B795F7959E3F23
:1015100008F0B0CF9395880F08F09927EE0F9795B4
:101520008795089597F99F6780E870E060E00895D7
:101530009F3F31F0915020F4879577956795B79547
:10154000880F911D9695879597F908959FEF80ECE8
:10155000089591505040660F771F881FD2F7089565
:10156000DF93CF931F930F93FF92EF92DF927B0154
:101570008C01689406C0DA2EEF010E948509FE01F5
:10158000E894A5912591359145915591A6F3EF01E8
:101590000E943D0AFE019701A801DA9469F7DF90E5
:1015A000EF90FF900F911F91CF91DF91089500244C
:1015B0000A941616170618060906089500240A94B8
:1015C00012161306140605060895092E0394000C3E
:1015D00011F4882352F0BB0F40F4BF2B11F460FFCD
:1015E00004C06F5F7F4F8F4F9F4F0895F894FFCFD8
:1015F0001903210326032E0336033B03400345034F
:04160000004014543E
:0416040001010100DF
:00000001FF
