:100000000C949E000C94BB000C94BB000C94BB00A1
:100010000C94BD000C94BB000C94BB000C94BB0072
:100020000C94BB000C94BB000C94BB000C94BB0064
:100030000C94BB000C94BB000C94BB000C94BB0054
:100040000C94BB000C94BB000C94BB000C94BB0044
:100050000C94BB000C94BB000C94BB000C94BB0034
:100060000C94BB000C94BB000C94BB000C94BB0024
:100070000C94BB000C94BB000C94BB00000000006F
:100080000000000000000000000000000000000070
:100090000000000000000000000000000000000060
:1000A0000000000000000000000000000000000050
:1000B0000000000000000000000000000000000040
:1000C0000000000000000000000000000000000030
:1000D0000000000000000000000000000000000020
:1000E0000000000000000000000000000000000010
:1000F0000000000000000000000000000000000000
:1001000000000000000000000000000000000000EF
:1001100000000000000000000000000000000000DF
:1001200000000000000000000000000000000000CF
:1001300000000000000000000000000011241FBEAD
:10014000CFEFCDBFDFE3DEBF18E3A0E0B8E3EAEF17
:10015000F8E002C005900D92A430B107D9F728E36A
:10016000A4E0B8E301C01D92A730B207E1F70E94F6
:1001700007040C9473040C9400000F920FB60F92B6
:100180001F9211242F935F936F937F938F939F936D
:10019000AF93BF9320912804287080910038821378
:1001A0000CC021110AC08091013890E0019663E0F3
:1001B00070E00E942304809301382093003888E087
:1001C00080932904BF91AF919F918F917F916F91FF
:1001D0005F912F911F900F900FBE0F901895E0E048
:1001E000F8E089E090E08087918783E0878380EC66
:1001F000868308959091040895FFFCCF80930208B0
:100200000895CF93DF93EC018991811103C0DF91B1
:10021000CF9108950E94FA00F7CFE0E0F4E08081EA
:100220008E678083E0E2F4E0808183608083808158
:10023000877F80838BE0838B0895E0E0F6E083E0A6
:10024000828381E08083E0EAF0E0808180628083C5
:1002500008958093060681E08093080680910B063E
:1002600080FFFCCF81E080930B0680911006909177
:1002700011060895CF93C0E061E08C2F0E94110217
:100280008FE493EC0197F1F700C0000060E08C2F41
:100290000E941102CF5FC83079F7C6E061E08C2F71
:1002A0000E9411028FE493EC0197F1F700C0000067
:1002B00060E08C2F0E941102C15080F7CF91089509
:1002C000E0E0F4E09481282F30E060E1869FA00117
:1002D000112440779E71492B54E0859FC001112461
:1002E0008072482B4483E0E2F4E04481C90156E087
:1002F000959587955A95E1F764E0359527956A9528
:10030000E1F72370982F9170292B4C7F242B82705A
:10031000282B24830895CF93C0E08C2F0E94600186
:100320002FE38DE093E0215080409040E1F700C042
:100330000000CF5FCF3F89F7CF9108951F93CF93F0
:10034000DF93CDB7DEB72697CDBFDEBF182F24E6EB
:1003500030E02D833E8319821A821B821C82812FFA
:100360000E94290129813A814B815C81280F391F24
:10037000411D511D29833A834B835C838FE493ECA9
:100380000197F1F700C000002D813E812150310915
:100390002D833E83232B19F769817A818B819C8180
:1003A00024E630E040E050E00E9437042093043817
:1003B000309305382696CDBFDEBFDF91CF911F91D8
:1003C0000895CF93DF932091043830910538821B34
:1003D000930B9C0197FF04C022273327281B390B5E
:1003E0002530310514F490E080E097FF03C091952B
:1003F0008195910969E170E00E942304D62FC0E045
:1004000061E0CD1708F060E08C2F0E941102CF5FF1
:10041000C830B1F7DF91CF9108950E9429010C9463
:10042000E101962F8830D0F4E82FF0E0EB58FB4F35
:100430000C945904809124048D7F660F682B60937F
:1004400024040895609124046E7F692BF8CF809175
:1004500004048D7F660F682B6093040408958091D7
:1004600004048B7F24E0929FB0011124F4CF80918B
:100470000404877F28E0F7CF809104048F7B20E479
:10048000F2CF809104048F7D20E2EDCF80910404AF
:100490008F7E20E1E8CFE0E0F4E080818E6380830E
:1004A00008958AE00E9429019695965F8091040440
:1004B000817C80930404209104048091023841E0FF
:1004C00050E0082E01C0440F0A94EAF7242B209331
:1004D00004042091063821110CC0853020F48F5F70
:1004E0008093023803C081E080930638915040F435
:1004F0000895823010F08150F3CF10920638F6CF75
:10050000E7E8F3E13197F1F700C00000EFCF2F9259
:100510003F924F925F926F927F928F929F92AF9293
:10052000BF92CF92DF92EF92FF920F931F93CF93E0
:10053000DF93CDB7DEB72B97CDBFDEBFDC01688779
:100540007987190181E090E09C0102C0220F331FDE
:100550004A95E2F7A901413031E053070CF0FFC0A2
:100560008A010150110930E020E00817190714F53D
:1005700027E030E029833A8301E010E004171507F3
:100580000CF44AC090E080E02B96CDBFDEBFDF9137
:10059000CF911F910F91FF90EF90DF90CF90BF9080
:1005A000AF909F908F907F906F905F904F903F9013
:1005B0002F900895BA0175956795F901E60FF71F19
:1005C0000E171F07C4F3FB0131972E233F23260F7D
:1005D000371F82179307F4F4BD01680F791FFB01E1
:1005E000F0806D01C20ED31EF601E080FB01E082B7
:1005F000F601F08268857985680F791FFB01F0802C
:10060000C884D984C20ED31EF601E080FB01E082CB
:10061000F601F0820196A9CF2801440C551C70E028
:1006200060E0CB01098002C0880F991F0A94E2F7AD
:10063000FC01E454FF4F2491722EFC01E458FF4F5B
:10064000E4912114310409F4E195EA87211431047D
:1006500021F4722E7594E595EA876B01C00ED11EC8
:100660007B01E416F5066CF06F5F7F4F06171707E6
:10067000C1F629813A812150310929833A838201C7
:100680007DCFCD018C0D9D1D8D839E83FC018081CE
:10069000F72DF8029001112426FB662460F8220F42
:1006A000232F221F330B620E288539852C0D3D1D0B
:1006B0002B833C83F9012081FA85F2025001112439
:1006C000A6FAFF27F0F9AA0CAB2CAA1CBB08FA0D5E
:1006D000FB87362D3F1B3F83972D29029001112464
:1006E000EA85E802C00111244C01880C892C881C81
:1006F00099085901AA0CAB2CAA1CBB08A80C26FB14
:10070000222720F9A20E86FB882780F98A0D9D01F9
:100710002E0D3F1DF9019081A884B984AE0CBF1C39
:10072000F50180802114310411F495958594FB85A1
:10073000F6199F2E990EED81FE819082982C981AC1
:10074000EB81FC819082FF819F0FF9019083880DDE
:10075000F5018083E40CF51CC40CD51C82CF8FEF0F
:100760009FEF12CFAF92BF92CF92DF92EF92FF92A4
:100770000F931F93CF93DF93EC017A018B0101500C
:10078000110981E090E06C01002E02C0CC0CDD1C50
:100790000A94E2F75E01AC0CBD1C80E090E04115CC
:1007A000510531F09A01A801BE01C5010E948702DE
:1007B000FE0121E030E02C153D059CF0EF28E1F42E
:1007C00030E020E0A801BE01C501DF91CF911F916B
:1007D0000F91FF90EF90DF90CF90BF90AF900C946F
:1007E0008702DF01AC0DBD1D4C9151815C934183AB
:1007F0002E5F3F4F3296DFCFDF91CF911F910F9148
:10080000FF90EF90DF90CF90BF90AF9008950E943F
:10081000EF000E940D010E941D01789487E00E9464
:100820009E0180910138813039F0823049F0811188
:10083000F8CF0E943A01F5CF87E00E940D02F1CF78
:100840000E948B01EECF97FB072E16F4009407D081
:1008500077FD09D00E945F0407FC05D03EF4909517
:1008600081959F4F0895709561957F4F0895A1E2FE
:100870001A2EAA1BBB1BFD010DC0AA1FBB1FEE1F1A
:10088000FF1FA217B307E407F50720F0A21BB30B65
:10089000E40BF50B661F771F881F991F1A9469F7E1
:1008A00060957095809590959B01AC01BD01CF013D
:1008B0000895EE0FFF1F0590F491E02D0994AA1BF7
:1008C000BB1B51E107C0AA1FBB1FA617B70710F03B
:1008D000A61BB70B881F991F5A95A9F7809590956D
:1008E000BC01CD010895F894FFCF1A02220227021D
:0A08F0002F0237023C0241024602CB
:0408FA0001010100F7
:00000001FF
