:100000000C943E000C9450000C9450000C94500042
:100010000C9452000C9450000C9450000C9450001E
:100020000C9450000C9450000C9450000C94500010
:100030000C9450000C9450000C9450000C94500000
:100040000C9450000C9450000C9450000C945000F0
:100050000C9450000C9450000C9450000C945000E0
:100060000C9450000C9450000C9450000C945000D0
:100070000C9450000C9450000C94500011241FBE9E
:10008000CFEFCDBFDFE3DEBF28E3A0E0B8E301C0E0
:100090001D92A330B207E1F70E94D9010C943302FC
:1000A0000C9400000F920FB60F921F9211245F93D1
:1000B0006F937F938F939F93AF93BF938091290406
:1000C00083FF0DC08091003890E0019663E070E0FE
:1000D0000E94E3018093003888E080932904BF9157
:1000E000AF919F918F917F916F915F911F900F9032
:1000F0000FBE0F901895E0E0F8E089E090E080876F
:10010000918783E0878380EC86830895909104082B
:1001100095FFFCCF809302080895CF93DF93EC0105
:100120008991811103C0DF91CF9108950E948600CB
:10013000F7CFE0E0F4E080818E678083E0E2F4E0D6
:100140008081836080838081877F808388E0838B48
:100150000895CF93C0E061E08C2F0E949F018FE44F
:1001600093EC0197F1F700C0000060E08C2F0E9433
:100170009F01CF5FC83079F7C6E061E08C2F0E9405
:100180009F018FE493EC0197F1F700C0000060E05D
:100190008C2F0E949F01C15080F7CF910895E0E01D
:1001A000F4E09481282F30E060E1869FA0011124C3
:1001B00040779E71492B54E0859FC00111248072C5
:1001C000482B4483E0E2F4E04481C90156E0959570
:1001D00087955A95E1F764E0359527956A95E1F79B
:1001E0002370982F9170292B4C7F242B8270282B01
:1001F00024830895CF93C0E08C2F0E94CF002FE777
:1002000084E89EE1215080409040E1F700C000006A
:10021000CF5FCF3F89F7CF910895CF93DF932091A0
:10022000013830910238821B930B9C0197FF04C068
:1002300022273327281B390B2530310514F490E091
:1002400080E097FF03C091958195910969E170E085
:100250000E94E301D62FC0E061E0CD1708F060E016
:100260008C2F0E949F01CF5FC830B1F7DF91CF91F3
:100270000895E0E0F6E083E0828381E0808382817C
:100280008283E0EAF0E08081806280830895809339
:10029000060681E08093080680910B0680FFFCCF64
:1002A00081E080930B0680911006909111060895CD
:1002B0001F93CF93DF93CDB7DEB72697CDBFDEBFB9
:1002C000182F24E630E02D833E8319821A821B8288
:1002D0001C82812F0E94470129813A814B815C81D8
:1002E000280F391F411D511D29833A834B835C839D
:1002F0008FE493EC0197F1F700C000002D813E815F
:10030000215031092D833E83232B19F769817A818E
:100310008B819C8124E630E040E050E00E94F701B0
:1003200020930138309302382696CDBFDEBFDF918F
:10033000CF911F9108950E9447010C940D01962FB3
:100340008830D0F4E82FF0E0EB5CFD4F0C941902FC
:10035000809124048D7F660F682B60932404089598
:10036000609124046E7F692BF8CF809104048D7F07
:10037000660F682B609304040895809104048B7FBA
:1003800024E0929FB0011124F4CF80910404877F70
:1003900028E0F7CF809104048F7B20E4F2CF809196
:1003A00004048F7D20E2EDCF809104048F7E20E154
:1003B000E8CF0E947B000E9499000E943901789446
:1003C0000E94A900FDCF97FB072E16F4009407D0DA
:1003D00077FD09D00E941F0207FC05D03EF49095DE
:1003E00081959F4F0895709561957F4F0895A1E283
:1003F0001A2EAA1BBB1BFD010DC0AA1FBB1FEE1F9F
:10040000FF1FA217B307E407F50720F0A21BB30BE9
:10041000E40BF50B661F771F881F991F1A9469F765
:1004200060957095809590959B01AC01BD01CF01C1
:100430000895EE0FFF1F0590F491E02D0994AA1B7B
:10044000BB1B51E107C0AA1FBB1FA617B70710F0BF
:10045000A61BB70B881F991F5A95A9F780959095F1
:10046000BC01CD010895F894FFCFA801B001B501FA
:0A047000BD01C501CA01CF01D4018E
:00000001FF
