:100000000C943E000C9448000C9448000C9448005A
:100010000C9448000C9448000C9448000C94480040
:100020000C9448000C9448000C9448000C94480030
:100030000C9448000C9448000C9448000C94480020
:100040000C9448000C9448000C9448000C94480010
:100050000C9448000C9448000C9448000C94480000
:100060000C9448000C9448000C9448000C944800F0
:100070000C9448000C9448000C94480011241FBEB6
:10008000CFEFCDBFDFE3DEBF0E9465010C94CD0151
:100090000C940000E0E0F8E089E090E08087918730
:1000A00083E0878380EC868308959091040895FF10
:1000B000FCCF809302080895CF93DF93EC018991E0
:1000C000811103C0DF91CF9108950E945500F7CFB1
:1000D000E0E0F4E080818E678083E0E2F4E08081FC
:1000E000836080838081877F808388E0838B08950D
:1000F000CF93C0E061E08C2F0E942B018FE493EC42
:100100000197F1F700C0000060E08C2F0E942B01E6
:10011000CF5FC83079F7C6E061E08C2F0E942B01D9
:100120008FE493EC0197F1F700C0000060E08C2FA2
:100130000E942B01C15080F7CF910895E0E0F4E0D8
:100140009481282F30E060E1869FA0011124407740
:100150009E71492B54E0859FC00111248072482B69
:100160004483E0E2F4E04481C90156E09595879527
:100170005A95E1F764E0359527956A95E1F7237084
:10018000982F9170292B4C7F242B8270282B24834D
:100190000895CF93C0E08C2F0E949E002FE784E843
:1001A0009EE1215080409040E1F700C00000CF5F09
:1001B000CF3F89F7CF910895CF93DF9392509C0161
:1001C00097FF04C022273327281B390B2530310520
:1001D00014F490E080E097FF03C091958195910918
:1001E00023E0880F991F2A95E1F76FEF71E00E94D5
:1001F0009F01D62FC0E061E0CD1708F060E08C2FA2
:100200000E942B01CF5FC830B1F7DF91CF910895E5
:10021000E0E0F6E083E0828381E080838281828374
:10022000E0EAF0E080818061808308958093060693
:1002300081E08093080680910B0680FFFCCF81E06F
:1002400080930B06809110069091110608950E94EC
:1002500016010C94DC00962F8830D0F4E82FF0E0E3
:10026000E153FE4F0C94B301809124048D7F660FFF
:10027000682B609324040895609124046E7F692B99
:10028000F8CF809104048D7F660F682B609304047F
:100290000895809104048B7F24E0929FB001112483
:1002A000F4CF80910404877F28E0F7CF8091040485
:1002B0008F7B20E4F2CF809104048F7D20E2EDCF8C
:1002C000809104048F7E20E1E8CF0E944A000E94C2
:1002D00068000E940801D0E0C0E011E08EEA93E8D7
:1002E0000E945C008091280483FD1BC02FE38DE0F9
:1002F00093E0215080409040E1F700C000008091E1
:10030000280483FD0EC0C1278091280483FFFCCF01
:100310002FE38DE093E0215080409040E1F700C052
:100320000000C11108C0DF5F0E947800D330B0F236
:10033000D0E0C1E0D3CF87E00E942701CFCF97FB69
:10034000072E16F4009407D077FD09D00E94B9015A
:1003500007FC05D03EF4909581959F4F08957095C8
:1003600061957F4F0895EE0FFF1F0590F491E02DEA
:100370000994AA1BBB1B51E107C0AA1FBB1FA617EC
:10038000B70710F0A61BB70B881F991F5A95A9F73E
:1003900080959095BC01CD010895F894FFCF34016C
:0E03A0003C0141014901510156015B01600120
:0F03AE0048656C6C6F2C20776F726C64210A00AD
:00000001FF
