:100000000C94CB000C94E8000C94E8000C94E800ED
:100010000C94EA000C94E8000C94E8000C94E800BE
:100020000C94E8000C94E8000C948F050C94E80004
:100030000C94E8000C94E8000C94E8000C94E800A0
:100040000C94E8000C94E8000C94E8000C94E80090
:100050000C94E8000C94E8000C94E8000C94E80080
:100060000C94E8000C94E8000C94E8000C94E80070
:100070000C94E8000C94E8000C94E80008000000E0
:10008000BE922449123EABAAAA2ABECDCCCC4C3E8D
:1000900000000080BEABAAAAAA3E00000000BF007C
:1000A0000000803F0000000000084178D3BB438778
:1000B000D1133D190E3CC3BD4282AD2B3E68EC828C
:1000C00076BED98FE1A93E4C80EFFFBE01C4FF7F11
:1000D0003F000000000000000000000000000000E1
:1000E0000000000000000000000000000000000010
:1000F0000000000000000000000000000000000000
:1001000000000000000000000000000000000000EF
:1001100000000000000000000000000000000000DF
:1001200000000000000000000000000000000000CF
:1001300000000000000000000000000000000000BF
:1001400000000000000000000000000000000000AF
:10015000000000000000000000000000000000009F
:10016000000000000000000000000000000000008F
:10017000000000000000000000000000000000007F
:10018000000000000000000000000000000000006F
:1001900000000000000011241FBECFEFCDBFDFE341
:1001A000DEBF18E3A0E0B8E3ECE9F1E102C005909E
:1001B0000D92A430B107D9F72AE3A4E0B8E301C057
:1001C0001D92A634B207E1F70E94D3050C94C4082F
:1001D0000C9400001F920F920FB60F921124CF9231
:1001E000DF92EF92FF920F931F932F933F934F93C2
:1001F0005F936F937F938F939F93AF93BF93EF938F
:10020000FF930E94B505462F572FBC01809128040B
:100210000091043810910538209106383091073844
:100220006A017B01C01AD10AE20AF30A970186012A
:10023000033311052105310590F083FD10C0809135
:10024000013890E00196837099278093013840939C
:10025000043850930538609306387093073888E067
:1002600080932904FF91EF91BF91AF919F918F915E
:100270007F916F915F914F913F912F911F910F91BE
:10028000FF90EF90DF90CF900F900FBE0F901F90D8
:100290001895E0E0F8E089E090E08087918783E0BE
:1002A000878380EC868308959091040895FFFCCFA6
:1002B000809302080895CF93DF93EC018991811117
:1002C00003C0DF91CF9108950E945401F7CFE0E081
:1002D000F4E080818E678083E0E2F4E080818360D7
:1002E00080838081877F808389E0838B0895E0E02D
:1002F000F6E083E0828381E08083E0EAF0E08081C1
:100300008063808308958093060681E080930806C9
:1003100080910B0680FFFCCF81E080930B068091DB
:100320001006909111060895CF93C0E061E08C2FE4
:100330000E94C6028FE493EC0197F1F700C0000021
:1003400060E08C2F0E94C602CF5FC83079F7C6E00C
:1003500061E08C2F0E94C6028FE493EC0197F1F7C5
:1003600000C0000060E08C2F0E94C602C15080F7E0
:10037000CF910895E0E0F4E09481282F30E060E12F
:10038000869FA001112440779E71492B54E0859FE0
:10039000C00111248072482B4483E0E2F4E04481E0
:1003A000C90156E0959587955A95E1F764E0359532
:1003B00027956A95E1F72370982F9170292B4C7F30
:1003C000242B8270282B24830895CF93C0E08C2F98
:1003D0000E94BA012FE38DE093E0215080409040CD
:1003E000E1F700C00000CF5FCF3F89F7CF910895BC
:1003F0001F93CF93DF93CDB7DEB72697CDBFDEBF78
:10040000182F24E630E02D833E8319821A821B8246
:100410001C82812F0E94830129813A814B815C815A
:10042000280F391F411D511D29833A834B835C835B
:1004300087EA91E60197F1F700C000002D813E8127
:10044000215031092D833E83232B19F769817A814D
:100450008B819C8124E630E040E050E00E94100651
:1004600020930838309309382696CDBFDEBFDF9140
:10047000CF911F910895CF92DF92EF92FF920F9349
:100480001F93CF93DF93CDB7DEB72597CDBFDEBFE8
:10049000AC0100913D3810913E3820913F383091A9
:1004A000403880913B3890913C38FC01EE0FFF1FA3
:1004B000E55FF74CA081B1814083518370E060E03B
:1004C0004A1B5B0B610971096A017B01C00ED11ED9
:1004D000E21EF31EC982DA82EB82FC82C0923D38B2
:1004E000D0923E38E0923F38F0924038019668E171
:1004F00070E00E94FC0580933B3890933C388091DB
:100500000A38883118F48F5F80930A3820910A38AE
:1005100030E050E040E069817A818B819C810E94CB
:1005200010068091083890910938281B390B37FF45
:1005300003C0319521953109C90123E0880F991F26
:100540002A95E1F763E070E00E94FC056D83198253
:1005500061E0DD80E980ED1408F060E089810E94AF
:10056000C60229812F5F2983283091F72596CDBFB8
:10057000DEBFDF91CF911F910F91FF90EF90DF9041
:10058000CF9008950E9483010C943B02962F8830EF
:10059000D0F4E82FF0E0EA53F74F0C943206809144
:1005A00024048D7F660F682B609324040895609166
:1005B00024046E7F692BF8CF809104048D7F660F31
:1005C000682B609304040895809104048B7F24E0D9
:1005D000929FB0011124F4CF80910404877F28E01A
:1005E000F7CF809104048F7B20E4F2CF8091040444
:1005F0008F7D20E2EDCF809104048F7E20E1E8CF53
:10060000E0E0F4E080818E63808308958AE00E94B8
:1006100083019695965F80910404817C8093040405
:10062000209104048091023841E050E0082E01C07E
:10063000440F0A94EAF7242B2093040420914138B4
:1006400021110CC0853020F48F5F8093023803C0E5
:1006500081E080934138915040F40895823010F049
:100660008150F3CF10924138F6CFE7E8F3E13197AC
:10067000F1F700C00000EFCF2F923F924F925F92B0
:100680006F927F928F929F92AF92BF92CF92DF92A2
:10069000EF92FF920F931F93CF93DF93CDB7DEB707
:1006A0002B97CDBFDEBFDC0168877987190181E018
:1006B00090E09C0102C0220F331F4A95E2F7A90186
:1006C000413031E053070CF0FFC08A01015011099D
:1006D00030E020E00817190714F527E030E02983FF
:1006E0003A8301E010E0041715070CF44AC090E0CB
:1006F00080E02B96CDBFDEBFDF91CF911F910F9190
:10070000FF90EF90DF90CF90BF90AF909F908F9031
:100710007F906F905F904F903F902F900895BA0117
:1007200075956795F901E60FF71F0E171F07C4F3BC
:10073000FB0131972E233F23260F371F8217930784
:10074000F4F4BD01680F791FFB01F0806D01C20E4A
:10075000D31EF601E080FB01E082F601F08268859D
:100760007985680F791FFB01F080C884D984C20E97
:10077000D31EF601E080FB01E082F601F0820196D3
:10078000A9CF2801440C551C70E060E0CB01098022
:1007900002C0880F991F0A94E2F7FC01EA5EFE4F3F
:1007A0002491722EFC01EA52FF4FE491211431048E
:1007B00009F4E195EA872114310421F4722E75942D
:1007C000E595EA876B01C00ED11E7B01E416F506A4
:1007D0006CF06F5F7F4F06171707C1F629813A81CA
:1007E0002150310929833A8382017DCFCD018C0DBF
:1007F0009D1D8D839E83FC018081F72DF802900161
:10080000112426FB662460F8220F232F221F330BAE
:10081000620E288539852C0D3D1D2B833C83F90103
:100820002081FA85F20250011124A6FAFF27F0F97F
:10083000AA0CAB2CAA1CBB08FA0DFB87362D3F1B5C
:100840003F83972D290290011124EA85E802C00117
:1008500011244C01880C892C881C99085901AA0C78
:10086000AB2CAA1CBB08A80C26FB222720F9A20E41
:1008700086FB882780F98A0D9D012E0D3F1DF90109
:100880009081A884B984AE0CBF1CF501808021142E
:10089000310411F495958594FB85F6199F2E990ED8
:1008A000ED81FE819082982C981AEB81FC819082D8
:1008B000FF819F0FF9019083880DF5018083E40C7F
:1008C000F51CC40CD51C82CF8FEF9FEF12CFAF92D7
:1008D000BF92CF92DF92EF92FF920F931F93CF932D
:1008E000DF93EC017A018B010150110981E090E066
:1008F0006C01002E02C0CC0CDD1C0A94E2F75E01F4
:10090000AC0CBD1C80E090E04115510531F09A011E
:10091000A801BE01C5010E943C03FE0121E030E0B8
:100920002C153D059CF0EF28E1F430E020E0A80113
:10093000BE01C501DF91CF911F910F91FF90EF9004
:10094000DF90CF90BF90AF900C943C03DF01AC0DD3
:10095000BD1D4C9151815C9341832E5F3F4F329678
:10096000DFCFDF91CF911F910F91FF90EF90DF903C
:10097000CF90BF90AF9008950E947701E2E4F9E331
:10098000A2E4B8E311921D928AE3E234F807D1F7AA
:100990000895AF92BF92CF92DF92EF92FF920F93A2
:1009A0001F93CF93DF93CDB7DEB72697CDBFDEBFC2
:1009B00032E4E32E39E3F32E02E418E342E4C42EDA
:1009C0004AE3D42E5801E982FA8287E00E9483012B
:1009D0009695879596958795E981FA818193E98324
:1009E000FA83F50111925F0129813A81C216D3067B
:1009F00061F730E020E048E050E062E478E382E430
:100A000099E30E943C031D821E82F70121917F0120
:100A1000F80181918F018802C00111242202800D0A
:100A2000911D11249C01990F440B550B29833A8386
:100A30004B835C83CA01B9010E94840669837A836F
:100A40008B839C8369817A818B819C810E94B3070F
:100A500069837A838B839C8369817A818B819C8172
:100A60000E944C0669837A838B839C8389819A8157
:100A700001969C01990F440B550B29833A834B83B4
:100A80005C83CA01B9010E94840669837A838B83DF
:100A90009C8369817A818B819C810E94E8062DEF7D
:100AA00034E649EA52E469837A838B839C836981C3
:100AB0007A818B819C810E94400769837A838B8332
:100AC0009C8369817A818B819C810E9453068D81F0
:100AD00087700E94C6024D815E814F5F5F4F4D83DC
:100AE0005E834038510509F090CF2696CDBFDEBF1A
:100AF000DF91CF911F910F91FF90EF90DF90CF90FA
:100B0000BF90AF900895E0E0FAE0118289E0808321
:100B100082EE94E080A791A780E1828708951F92DA
:100B20001FB61F9211248F939F93AF93BF93809111
:100B3000423A9091433AA091443AB091453A019695
:100B4000A11DB11D8093423A9093433AA093443A39
:100B5000B093453A80E180930B0ABF91AF919F918A
:100B60008F911F901FBE1F901895CF93DF9300D0D9
:100B700000D0CDB7DEB7F8948091423A9091433AD5
:100B8000A091443AB091453A89839A83AB83BC8360
:100B9000789469817A818B819C812496CDBFDEBF58
:100BA000DF91CF9108950E9449010E9467010E9440
:100BB000770178942FE784E89EE1215080409040AF
:100BC000E1F700C0000087E00E94F8018091013841
:100BD000823079F028F4811108C00E949401F6CF88
:100BE0008330A1F70E94C904F1CF87E00E94C202BE
:100BF000EDCF0E94E501EACF97FB072E16F4009493
:100C000007D077FD09D00E94380607FC05D03EF4D6
:100C1000909581959F4F0895709561957F4F0895A8
:100C2000A1E21A2EAA1BBB1BFD010DC0AA1FBB1FF0
:100C3000EE1FFF1FA217B307E407F50720F0A21B62
:100C4000B30BE40BF50B661F771F881F991F1A94CF
:100C500069F760957095809590959B01AC01BD01F9
:100C6000CF010895EE0FFF1F0590F491E02D099438
:100C7000AA1BBB1B51E107C0AA1FBB1FA617B707C2
:100C800010F0A61BB70B881F991F5A95A9F78095DE
:100C90009095BC01CD0108950E9453066894B1114E
:100CA0000C94E20608950E94C70688F09F5798F0BA
:100CB000B92F9927B751B0F0E1F0660F771F881F61
:100CC000991F1AF0BA95C9F714C0B13091F00E947B
:100CD000E106B1E008950C94E106672F782F88278C
:100CE000B85F39F0B93FCCF3869577956795B395A2
:100CF000D9F73EF490958095709561957F4F8F4F11
:100D00009F4F0895E89409C097FB3EF49095809515
:100D1000709561957F4F8F4F9F4F9923A9F0F92FC1
:100D200096E9BB279395F695879577956795B7953F
:100D3000F111F8CFFAF4BB0F11F460FF1BC06F5F25
:100D40007F4F8F4F9F4F16C0882311F096E911C037
:100D5000772321F09EE8872F762F05C0662371F058
:100D600096E8862F70E060E02AF09A95660F771F6C
:100D7000881FDAF7880F9695879597F9089557FD9C
:100D80009058440F551F59F05F3F71F04795880FF9
:100D900097FB991F61F09F3F79F087950895121690
:100DA00013061406551FF2CF4695F1DF08C016163C
:100DB00017061806991FF1CF8695710561050894ED
:100DC0000895E894BB2766277727CB0197F9089504
:100DD0000E94F80629ED3BE54EED5EE30C944007DA
:100DE00016F00C9466080C94740868940C946008CF
:100DF0000E94C706A8F39923C1F3AEF3DF93CF9304
:100E00001F930F93FF92C92FDD2788232AF0219784
:100E1000660F771F881FDAF720E030E040E85FEBCD
:100E20009FE3883920F0803E38F021968F770E942A
:100E3000F407ECE7F0E004C00E94F407E9EAF0E010
:100E40000E947E088B01BE01EC01FB2E6F577109D9
:100E50007595771F880B990B0E94840628E132E76D
:100E600041E35FE30E945307AF2D9801AE01FF906D
:100E70000F911F91CF91DF910E940B080C94B30842
:100E80000E9453070C94B3080E94A50838F00E94F2
:100E9000AC0820F0952311F00C9460080C947408B1
:100EA00011240C94E2060E94BF0670F3959FC1F3D3
:100EB000950F50E0551F629FF001729FBB27F00D08
:100EC000B11D639FAA27F00DB11DAA1F649F66275D
:100ED000B00DA11D661F829F2227B00DA11D621FAC
:100EE000739FB00DA11D621F839FA00D611D221F66
:100EF000749F3327A00D611D231F849F600D211D4A
:100F0000822F762F6A2F11249F5750409AF0F1F0CC
:100F100088234AF0EE0FFF1FBB1F661F771F881F35
:100F200091505040A9F79E3F510580F00C94600805
:100F30000C94E2065F3FE4F3983ED4F386957795F0
:100F40006795B795F795E7959F5FC1F7FE2B880FDB
:100F5000911D9695879597F9089519F416F40C94B8
:100F600074080C9466080E94C706B8F39923C9F365
:100F7000B6F39F57550B87FF0E9477080024A0E621
:100F800040EA900180585695979528F4805C660F4A
:100F9000771F881F20F026173707480730F4621B99
:100FA000730B840B202931294A2BA695179407949B
:100FB000202531254A2758F7660F771F881F20F014
:100FC00026173707480730F4620B730B840B200D8C
:100FD000311D411DA09581F7B901842F9158880FCB
:100FE0009695879508955058BB27AA270E940B080D
:100FF0000C94B3080E94A50838F00E94AC0820F0B9
:1010000039F49F3F19F426F40C9474080EF4E0951B
:10101000E7FB0C946008E92F0E94BF0658F3BA174B
:10102000620773078407950720F079F4A6F50C94FE
:10103000E1060EF4E0950B2EBA2FA02D0B01B9019D
:1010400090010C01CA01A0011124FF27591B99F03E
:10105000593F50F4503E68F11A16F040A22F232F4A
:10106000342F4427585FF3CF469537952795A7959A
:10107000F0405395C9F77EF41F16BA0B620B730B41
:10108000840BBAF09150A1F0FF0FBB1F661F771FB2
:10109000881FC2F70EC0BA0F621F731F841F48F467
:1010A000879577956795B795F7959E3F08F0B0CFF0
:1010B0009395880F08F09927EE0F979587950895D7
:1010C00097F99F6780E870E060E008959F3F31F0F6
:1010D000915020F4879577956795B795880F911D66
:1010E0009695879597F908959FEF80EC0895915014
:1010F0005040660F771F881FD2F70895DF93CF9374
:101100001F930F93FF92EF92DF927B018C01689403
:1011100006C0DA2EEF010E945307FE01E894A59164
:101120002591359145915591A6F3EF010E940B0849
:10113000FE019701A801DA9469F7DF90EF90FF9024
:101140000F911F91CF91DF91089500240A941616F4
:10115000170618060906089500240A9412161306A5
:10116000140605060895092E0394000C11F4882333
:1011700052F0BB0F40F4BF2B11F460FF04C06F5F4F
:101180007F4F8F4F9F4F0895F894FFCFCF02D70224
:0C119000DC02E402EC02F102F602FB02B9
:04119C00010101004C
:00000001FF
